{
  "contractName": "AirDrop",
  "abi": [
    {
      "inputs": [
        {
          "internalType": "contract Token",
          "name": "_token",
          "type": "address"
        },
        {
          "internalType": "bytes32",
          "name": "_airDropWhiteListMerkleRoot",
          "type": "bytes32"
        }
      ],
      "stateMutability": "nonpayable",
      "type": "constructor"
    },
    {
      "inputs": [],
      "name": "airDropWhiteListMerkleRoot",
      "outputs": [
        {
          "internalType": "bytes32",
          "name": "",
          "type": "bytes32"
        }
      ],
      "stateMutability": "view",
      "type": "function",
      "constant": true
    },
    {
      "inputs": [
        {
          "internalType": "uint256",
          "name": "path",
          "type": "uint256"
        },
        {
          "internalType": "bytes32[]",
          "name": "witnesses",
          "type": "bytes32[]"
        },
        {
          "internalType": "uint256",
          "name": "amount",
          "type": "uint256"
        }
      ],
      "name": "redeem",
      "outputs": [],
      "stateMutability": "nonpayable",
      "type": "function"
    }
  ],
  "bytecode": "0x608060405234801561001057600080fd5b506040516105fe3803806105fe8339818101604052604081101561003357600080fd5b810190808051906020019092919080519060200190929190505050816000806101000a81548173ffffffffffffffffffffffffffffffffffffffff021916908373ffffffffffffffffffffffffffffffffffffffff160217905550806001819055505050610558806100a66000396000f3fe608060405234801561001057600080fd5b50600436106100365760003560e01c806336a1e36b1461003b578063b29c196c14610107575b600080fd5b6101056004803603606081101561005157600080fd5b81019080803590602001909291908035906020019064010000000081111561007857600080fd5b82018360208201111561008a57600080fd5b803590602001918460208302840111640100000000831117156100ac57600080fd5b919080806020026020016040519081016040528093929190818152602001838360200280828437600081840152601f19601f82011690508083019250505050505050919291929080359060200190929190505050610125565b005b61010f6104ee565b6040518082815260200191505060405180910390f35b60008054906101000a900473ffffffffffffffffffffffffffffffffffffffff1673ffffffffffffffffffffffffffffffffffffffff166318160ddd6040518163ffffffff1660e01b815260040160206040518083038186803b15801561018b57600080fd5b505afa15801561019f573d6000803e3d6000fd5b505050506040513d60208110156101b557600080fd5b8101908080519060200190929190505050811061021d576040517f08c379a000000000000000000000000000000000000000000000000000000000815260040180806020018281038252602e8152602001806104f5602e913960400191505060405180910390fd5b600260003373ffffffffffffffffffffffffffffffffffffffff1673ffffffffffffffffffffffffffffffffffffffff16815260200190815260200160002060009054906101000a900460ff16156102dd576040517f08c379a00000000000000000000000000000000000000000000000000000000081526004018080602001828103825260108152602001807f416c72656164792072656465656d65640000000000000000000000000000000081525060200191505060405180910390fd5b60008033604051602001808360ff1660f81b81526001018273ffffffffffffffffffffffffffffffffffffffff1660601b81526014019250505060405160208183030381529060405280519060200120905060005b83518161ffff16101561041857600180861614156103a6576001848261ffff168151811061035c57fe5b602002602001015183604051602001808460ff1660f81b815260010183815260200182815260200193505050506040516020818303038152906040528051906020012091506103fe565b600182858361ffff16815181106103b957fe5b6020026020010151604051602001808460ff1660f81b815260010183815260200182815260200193505050506040516020818303038152906040528051906020012091505b6002858161040857fe5b0494508080600101915050610332565b506001548114610490576040517f08c379a000000000000000000000000000000000000000000000000000000000815260040180806020018281038252601c8152602001807f41646472657373206e6f7420696e207468652077686974656c6973740000000081525060200191505060405180910390fd5b6001600260003373ffffffffffffffffffffffffffffffffffffffff1673ffffffffffffffffffffffffffffffffffffffff16815260200190815260200160002060006101000a81548160ff02191690831515021790555050505050565b6001548156fe416d6f756e74207265717569726564206d757374206265206c657373207468616e20746f74616c20737570706c79a2646970667358221220e630baeefc45b4930077c7af943967ec7649b40b156431655c85cea50b50d21964736f6c634300060c0033",
  "immutableReferences": {},
  "source": "// SPDX-License-Identifier: MIT\n\npragma solidity >=0.6.0 <0.7.0;\n\nimport \"./Token.sol\";\n\n/// @title Contract to manage air drops efficiently\n// @author Lorran Sutter\ncontract AirDrop {\n    Token token;\n    bytes32 public airDropWhiteListMerkleRoot;\n    mapping(address => bool) redeemed;\n\n    /// @param _token Token to be air dropped\n    /// @param _airDropWhiteListMerkleRoot Merkle root of the addresses white list.\n    constructor(Token _token, bytes32 _airDropWhiteListMerkleRoot) public {\n        token = _token;\n        airDropWhiteListMerkleRoot = _airDropWhiteListMerkleRoot;\n    }\n\n    /// @notice Addresses can redeem their tokens.\n    /// @param path Proof path.\n    /// @param witnesses List of proof witnesses.\n    /// @param amount Amount of tokens wanted.\n    function redeem(\n        uint256 path,\n        bytes32[] memory witnesses,\n        uint256 amount\n    ) public {\n        require(\n            amount < token.totalSupply(),\n            \"Amount required must be less than total supply\"\n        );\n        require(!redeemed[msg.sender], \"Already redeemed\");\n\n        bytes32 node = keccak256(abi.encodePacked(uint8(0x00), msg.sender));\n        for (uint16 i = 0; i < witnesses.length; i++) {\n            if ((path & 0x01) == 1) {\n                node = keccak256(\n                    abi.encodePacked(uint8(0x01), witnesses[i], node)\n                );\n            } else {\n                node = keccak256(\n                    abi.encodePacked(uint8(0x01), node, witnesses[i])\n                );\n            }\n            path /= 2;\n        }\n\n        require(\n            node == airDropWhiteListMerkleRoot,\n            \"Address not in the whitelist\"\n        );\n\n        redeemed[msg.sender] = true;\n\n        // token.transfer(msg.sender, amount);\n    }\n}\n",
  "sourcePath": "C:\\MerkleAirDrop\\contracts\\AirDrop.sol",
  "compiler": {
    "name": "solc",
    "version": "0.6.12+commit.27d51765.Emscripten.clang"
  },
  "schemaVersion": "3.2.0",
  "updatedAt": "2020-07-26T19:43:17.701Z",
  "networkType": "ethereum",
  "devdoc": {
    "kind": "dev",
    "methods": {
      "constructor": {
        "params": {
          "_airDropWhiteListMerkleRoot": "Merkle root of the addresses white list.",
          "_token": "Token to be air dropped"
        }
      },
      "redeem(uint256,bytes32[],uint256)": {
        "params": {
          "amount": "Amount of tokens wanted.",
          "path": "Proof path.",
          "witnesses": "List of proof witnesses."
        }
      }
    },
    "title": "Contract to manage air drops efficiently",
    "version": 1
  },
  "userdoc": {
    "kind": "user",
    "methods": {
      "redeem(uint256,bytes32[],uint256)": {
        "notice": "Addresses can redeem their tokens."
      }
    },
    "version": 1
  }
}